{
  "contractName": "SolnSquareVerifier",
  "abi": [
    {
      "inputs": [
        {
          "internalType": "address",
          "name": "addr",
          "type": "address"
        }
      ],
      "payable": false,
      "stateMutability": "nonpayable",
      "type": "constructor"
    },
    {
      "anonymous": false,
      "inputs": [
        {
          "indexed": true,
          "internalType": "address",
          "name": "owner",
          "type": "address"
        },
        {
          "indexed": true,
          "internalType": "address",
          "name": "approved",
          "type": "address"
        },
        {
          "indexed": true,
          "internalType": "uint256",
          "name": "tokenId",
          "type": "uint256"
        }
      ],
      "name": "Approval",
      "type": "event"
    },
    {
      "anonymous": false,
      "inputs": [
        {
          "indexed": true,
          "internalType": "address",
          "name": "owner",
          "type": "address"
        },
        {
          "indexed": true,
          "internalType": "address",
          "name": "operator",
          "type": "address"
        },
        {
          "indexed": false,
          "internalType": "bool",
          "name": "approved",
          "type": "bool"
        }
      ],
      "name": "ApprovalForAll",
      "type": "event"
    },
    {
      "anonymous": false,
      "inputs": [
        {
          "indexed": false,
          "internalType": "address",
          "name": "caller",
          "type": "address"
        }
      ],
      "name": "Paused",
      "type": "event"
    },
    {
      "anonymous": false,
      "inputs": [
        {
          "indexed": false,
          "internalType": "uint256",
          "name": "index",
          "type": "uint256"
        },
        {
          "indexed": false,
          "internalType": "address",
          "name": "addr",
          "type": "address"
        }
      ],
      "name": "SolutionAdded",
      "type": "event"
    },
    {
      "anonymous": false,
      "inputs": [
        {
          "indexed": true,
          "internalType": "address",
          "name": "from",
          "type": "address"
        },
        {
          "indexed": true,
          "internalType": "address",
          "name": "to",
          "type": "address"
        },
        {
          "indexed": true,
          "internalType": "uint256",
          "name": "tokenId",
          "type": "uint256"
        }
      ],
      "name": "Transfer",
      "type": "event"
    },
    {
      "anonymous": false,
      "inputs": [
        {
          "indexed": false,
          "internalType": "address",
          "name": "caller",
          "type": "address"
        }
      ],
      "name": "Unpaused",
      "type": "event"
    },
    {
      "anonymous": false,
      "inputs": [
        {
          "indexed": false,
          "internalType": "address",
          "name": "newOwner",
          "type": "address"
        }
      ],
      "name": "ownershipTransferred",
      "type": "event"
    },
    {
      "constant": true,
      "inputs": [],
      "name": "SVContract",
      "outputs": [
        {
          "internalType": "contract SquareVerifier",
          "name": "",
          "type": "address"
        }
      ],
      "payable": false,
      "stateMutability": "view",
      "type": "function"
    },
    {
      "constant": false,
      "inputs": [
        {
          "internalType": "bytes32",
          "name": "_myid",
          "type": "bytes32"
        },
        {
          "internalType": "string",
          "name": "_result",
          "type": "string"
        }
      ],
      "name": "__callback",
      "outputs": [],
      "payable": false,
      "stateMutability": "nonpayable",
      "type": "function"
    },
    {
      "constant": false,
      "inputs": [
        {
          "internalType": "bytes32",
          "name": "_myid",
          "type": "bytes32"
        },
        {
          "internalType": "string",
          "name": "_result",
          "type": "string"
        },
        {
          "internalType": "bytes",
          "name": "_proof",
          "type": "bytes"
        }
      ],
      "name": "__callback",
      "outputs": [],
      "payable": false,
      "stateMutability": "nonpayable",
      "type": "function"
    },
    {
      "constant": false,
      "inputs": [
        {
          "internalType": "address",
          "name": "to",
          "type": "address"
        },
        {
          "internalType": "uint256",
          "name": "tokenId",
          "type": "uint256"
        }
      ],
      "name": "approve",
      "outputs": [],
      "payable": false,
      "stateMutability": "nonpayable",
      "type": "function"
    },
    {
      "constant": true,
      "inputs": [
        {
          "internalType": "address",
          "name": "owner",
          "type": "address"
        }
      ],
      "name": "balanceOf",
      "outputs": [
        {
          "internalType": "uint256",
          "name": "",
          "type": "uint256"
        }
      ],
      "payable": false,
      "stateMutability": "view",
      "type": "function"
    },
    {
      "constant": true,
      "inputs": [
        {
          "internalType": "uint256",
          "name": "tokenId",
          "type": "uint256"
        }
      ],
      "name": "getApproved",
      "outputs": [
        {
          "internalType": "address",
          "name": "",
          "type": "address"
        }
      ],
      "payable": false,
      "stateMutability": "view",
      "type": "function"
    },
    {
      "constant": true,
      "inputs": [],
      "name": "getBaseTokenURI",
      "outputs": [
        {
          "internalType": "string",
          "name": "",
          "type": "string"
        }
      ],
      "payable": false,
      "stateMutability": "view",
      "type": "function"
    },
    {
      "constant": true,
      "inputs": [],
      "name": "getName",
      "outputs": [
        {
          "internalType": "string",
          "name": "",
          "type": "string"
        }
      ],
      "payable": false,
      "stateMutability": "view",
      "type": "function"
    },
    {
      "constant": true,
      "inputs": [],
      "name": "getOwner",
      "outputs": [
        {
          "internalType": "address",
          "name": "",
          "type": "address"
        }
      ],
      "payable": false,
      "stateMutability": "view",
      "type": "function"
    },
    {
      "constant": true,
      "inputs": [],
      "name": "getSymbol",
      "outputs": [
        {
          "internalType": "string",
          "name": "",
          "type": "string"
        }
      ],
      "payable": false,
      "stateMutability": "view",
      "type": "function"
    },
    {
      "constant": true,
      "inputs": [
        {
          "internalType": "address",
          "name": "owner",
          "type": "address"
        },
        {
          "internalType": "address",
          "name": "operator",
          "type": "address"
        }
      ],
      "name": "isApprovedForAll",
      "outputs": [
        {
          "internalType": "bool",
          "name": "",
          "type": "bool"
        }
      ],
      "payable": false,
      "stateMutability": "view",
      "type": "function"
    },
    {
      "constant": false,
      "inputs": [
        {
          "internalType": "address",
          "name": "to",
          "type": "address"
        },
        {
          "internalType": "uint256",
          "name": "tokenId",
          "type": "uint256"
        },
        {
          "internalType": "string",
          "name": "tokenURI",
          "type": "string"
        }
      ],
      "name": "mint",
      "outputs": [
        {
          "internalType": "bool",
          "name": "",
          "type": "bool"
        }
      ],
      "payable": false,
      "stateMutability": "nonpayable",
      "type": "function"
    },
    {
      "constant": true,
      "inputs": [
        {
          "internalType": "uint256",
          "name": "tokenId",
          "type": "uint256"
        }
      ],
      "name": "ownerOf",
      "outputs": [
        {
          "internalType": "address",
          "name": "",
          "type": "address"
        }
      ],
      "payable": false,
      "stateMutability": "view",
      "type": "function"
    },
    {
      "constant": false,
      "inputs": [
        {
          "internalType": "address",
          "name": "from",
          "type": "address"
        },
        {
          "internalType": "address",
          "name": "to",
          "type": "address"
        },
        {
          "internalType": "uint256",
          "name": "tokenId",
          "type": "uint256"
        }
      ],
      "name": "safeTransferFrom",
      "outputs": [],
      "payable": false,
      "stateMutability": "nonpayable",
      "type": "function"
    },
    {
      "constant": false,
      "inputs": [
        {
          "internalType": "address",
          "name": "from",
          "type": "address"
        },
        {
          "internalType": "address",
          "name": "to",
          "type": "address"
        },
        {
          "internalType": "uint256",
          "name": "tokenId",
          "type": "uint256"
        },
        {
          "internalType": "bytes",
          "name": "_data",
          "type": "bytes"
        }
      ],
      "name": "safeTransferFrom",
      "outputs": [],
      "payable": false,
      "stateMutability": "nonpayable",
      "type": "function"
    },
    {
      "constant": false,
      "inputs": [
        {
          "internalType": "address",
          "name": "to",
          "type": "address"
        },
        {
          "internalType": "bool",
          "name": "approved",
          "type": "bool"
        }
      ],
      "name": "setApprovalForAll",
      "outputs": [],
      "payable": false,
      "stateMutability": "nonpayable",
      "type": "function"
    },
    {
      "constant": false,
      "inputs": [
        {
          "internalType": "bool",
          "name": "paused",
          "type": "bool"
        }
      ],
      "name": "setPaused",
      "outputs": [],
      "payable": false,
      "stateMutability": "nonpayable",
      "type": "function"
    },
    {
      "constant": true,
      "inputs": [
        {
          "internalType": "bytes4",
          "name": "interfaceId",
          "type": "bytes4"
        }
      ],
      "name": "supportsInterface",
      "outputs": [
        {
          "internalType": "bool",
          "name": "",
          "type": "bool"
        }
      ],
      "payable": false,
      "stateMutability": "view",
      "type": "function"
    },
    {
      "constant": true,
      "inputs": [
        {
          "internalType": "uint256",
          "name": "index",
          "type": "uint256"
        }
      ],
      "name": "tokenByIndex",
      "outputs": [
        {
          "internalType": "uint256",
          "name": "",
          "type": "uint256"
        }
      ],
      "payable": false,
      "stateMutability": "view",
      "type": "function"
    },
    {
      "constant": true,
      "inputs": [
        {
          "internalType": "address",
          "name": "owner",
          "type": "address"
        },
        {
          "internalType": "uint256",
          "name": "index",
          "type": "uint256"
        }
      ],
      "name": "tokenOfOwnerByIndex",
      "outputs": [
        {
          "internalType": "uint256",
          "name": "",
          "type": "uint256"
        }
      ],
      "payable": false,
      "stateMutability": "view",
      "type": "function"
    },
    {
      "constant": true,
      "inputs": [
        {
          "internalType": "uint256",
          "name": "tokenId",
          "type": "uint256"
        }
      ],
      "name": "tokenURI",
      "outputs": [
        {
          "internalType": "string",
          "name": "",
          "type": "string"
        }
      ],
      "payable": false,
      "stateMutability": "view",
      "type": "function"
    },
    {
      "constant": true,
      "inputs": [],
      "name": "totalSupply",
      "outputs": [
        {
          "internalType": "uint256",
          "name": "",
          "type": "uint256"
        }
      ],
      "payable": false,
      "stateMutability": "view",
      "type": "function"
    },
    {
      "constant": false,
      "inputs": [
        {
          "internalType": "address",
          "name": "from",
          "type": "address"
        },
        {
          "internalType": "address",
          "name": "to",
          "type": "address"
        },
        {
          "internalType": "uint256",
          "name": "tokenId",
          "type": "uint256"
        }
      ],
      "name": "transferFrom",
      "outputs": [],
      "payable": false,
      "stateMutability": "nonpayable",
      "type": "function"
    },
    {
      "constant": false,
      "inputs": [
        {
          "internalType": "address",
          "name": "newOwner",
          "type": "address"
        }
      ],
      "name": "transferOwnership",
      "outputs": [],
      "payable": false,
      "stateMutability": "nonpayable",
      "type": "function"
    },
    {
      "constant": false,
      "inputs": [
        {
          "internalType": "bytes32",
          "name": "key",
          "type": "bytes32"
        },
        {
          "internalType": "address",
          "name": "addr",
          "type": "address"
        },
        {
          "internalType": "uint256",
          "name": "index",
          "type": "uint256"
        }
      ],
      "name": "addSolution",
      "outputs": [],
      "payable": false,
      "stateMutability": "nonpayable",
      "type": "function"
    },
    {
      "constant": false,
      "inputs": [
        {
          "internalType": "address",
          "name": "addr",
          "type": "address"
        },
        {
          "internalType": "uint256",
          "name": "tokenId",
          "type": "uint256"
        },
        {
          "internalType": "uint256[2]",
          "name": "a",
          "type": "uint256[2]"
        },
        {
          "internalType": "uint256[2][2]",
          "name": "b",
          "type": "uint256[2][2]"
        },
        {
          "internalType": "uint256[2]",
          "name": "c",
          "type": "uint256[2]"
        },
        {
          "internalType": "uint256[2]",
          "name": "input",
          "type": "uint256[2]"
        }
      ],
      "name": "mintToken",
      "outputs": [
        {
          "internalType": "bool",
          "name": "",
          "type": "bool"
        }
      ],
      "payable": false,
      "stateMutability": "nonpayable",
      "type": "function"
    }
  ],
  "bytecode": "0x60806040523480156200001157600080fd5b50604051620038b5380380620038b5833981810160405260208110156200003757600080fd5b81019080805190602001909291905050506040518060400160405280600581526020017f676c6963650000000000000000000000000000000000000000000000000000008152506040518060400160405280600381526020017f474c5400000000000000000000000000000000000000000000000000000000008152506040518060600160405280603f815260200162003876603f9139336000806101000a81548173ffffffffffffffffffffffffffffffffffffffff021916908373ffffffffffffffffffffffffffffffffffffffff16021790555060008060146101000a81548160ff021916908315150217905550620001406301ffc9a760e01b6200021e60201b60201c565b620001586380ac58cd60e01b6200021e60201b60201c565b6200017063780e9d6360e01b6200021e60201b60201c565b826010908051906020019062000188929190620002be565b508160119080519060200190620001a1929190620002be565b508060129080519060200190620001ba929190620002be565b50620001d3635b5e139f60e01b6200021e60201b60201c565b50505080601560006101000a81548173ffffffffffffffffffffffffffffffffffffffff021916908373ffffffffffffffffffffffffffffffffffffffff160217905550506200036d565b63ffffffff60e01b817bffffffffffffffffffffffffffffffffffffffffffffffffffffffff191614156200025257600080fd5b6001806000837bffffffffffffffffffffffffffffffffffffffffffffffffffffffff19167bffffffffffffffffffffffffffffffffffffffffffffffffffffffff1916815260200190815260200160002060006101000a81548160ff02191690831515021790555050565b828054600181600116156101000203166002900490600052602060002090601f016020900481019282601f106200030157805160ff191683800117855562000332565b8280016001018555821562000332579182015b828111156200033157825182559160200191906001019062000314565b5b50905062000341919062000345565b5090565b6200036a91905b80821115620003665760008160009055506001016200034c565b5090565b90565b6134f9806200037d6000396000f3fe608060405234801561001057600080fd5b506004361061018e5760003560e01c80634f6ccce7116100de578063bdc32be011610097578063d3fc986411610071578063d3fc986414610d25578063dca5d45b14610e22578063e985e9c514610e7a578063f2fde38b14610ef65761018e565b8063bdc32be014610a58578063c87b56dd14610adb578063ccd5835a14610b825761018e565b80634f6ccce7146107b15780636352211e146107f357806370a0823114610861578063893d20e8146108b9578063a22cb46514610903578063b88d4fde146109535761018e565b806318160ddd1161014b5780632e27e398116101255780632e27e3981461053b5780632f745c591461058557806338bbfa50146105e757806342842e0e146107435761018e565b806318160ddd146103ea57806323b872dd1461040857806327dc297e146104765761018e565b806301ffc9a714610193578063081812fc146101f8578063095ea7b31461026657806315070401146102b457806316c38b3c1461033757806317d7de7c14610367575b600080fd5b6101de600480360360208110156101a957600080fd5b8101908080357bffffffffffffffffffffffffffffffffffffffffffffffffffffffff19169060200190929190505050610f3a565b604051808215151515815260200191505060405180910390f35b6102246004803603602081101561020e57600080fd5b8101908080359060200190929190505050610fa2565b604051808273ffffffffffffffffffffffffffffffffffffffff1673ffffffffffffffffffffffffffffffffffffffff16815260200191505060405180910390f35b6102b26004803603604081101561027c57600080fd5b81019080803573ffffffffffffffffffffffffffffffffffffffff16906020019092919080359060200190929190505050610fdf565b005b6102bc61129a565b6040518080602001828103825283818151815260200191508051906020019080838360005b838110156102fc5780820151818401526020810190506102e1565b50505050905090810190601f1680156103295780820380516001836020036101000a031916815260200191505b509250505060405180910390f35b6103656004803603602081101561034d57600080fd5b8101908080351515906020019092919050505061133c565b005b61036f61141b565b6040518080602001828103825283818151815260200191508051906020019080838360005b838110156103af578082015181840152602081019050610394565b50505050905090810190601f1680156103dc5780820380516001836020036101000a031916815260200191505b509250505060405180910390f35b6103f26114bd565b6040518082815260200191505060405180910390f35b6104746004803603606081101561041e57600080fd5b81019080803573ffffffffffffffffffffffffffffffffffffffff169060200190929190803573ffffffffffffffffffffffffffffffffffffffff169060200190929190803590602001909291905050506114ca565b005b6105396004803603604081101561048c57600080fd5b8101908080359060200190929190803590602001906401000000008111156104b357600080fd5b8201836020820111156104c557600080fd5b803590602001918460018302840111640100000000831117156104e757600080fd5b91908080601f016020809104026020016040519081016040528093929190818152602001838380828437600081840152601f19601f8201169050808301925050505050505091929192905050506114ed565b005b610543611530565b604051808273ffffffffffffffffffffffffffffffffffffffff1673ffffffffffffffffffffffffffffffffffffffff16815260200191505060405180910390f35b6105d16004803603604081101561059b57600080fd5b81019080803573ffffffffffffffffffffffffffffffffffffffff16906020019092919080359060200190929190505050611556565b6040518082815260200191505060405180910390f35b610741600480360360608110156105fd57600080fd5b81019080803590602001909291908035906020019064010000000081111561062457600080fd5b82018360208201111561063657600080fd5b8035906020019184600183028401116401000000008311171561065857600080fd5b91908080601f016020809104026020016040519081016040528093929190818152602001838380828437600081840152601f19601f820116905080830192505050505050509192919290803590602001906401000000008111156106bb57600080fd5b8201836020820111156106cd57600080fd5b803590602001918460018302840111640100000000831117156106ef57600080fd5b91908080601f016020809104026020016040519081016040528093929190818152602001838380828437600081840152601f19601f8201169050808301925050505050505091929192905050506115c9565b005b6107af6004803603606081101561075957600080fd5b81019080803573ffffffffffffffffffffffffffffffffffffffff169060200190929190803573ffffffffffffffffffffffffffffffffffffffff169060200190929190803590602001909291905050506115ce565b005b6107dd600480360360208110156107c757600080fd5b81019080803590602001909291905050506115ee565b6040518082815260200191505060405180910390f35b61081f6004803603602081101561080957600080fd5b8101908080359060200190929190505050611622565b604051808273ffffffffffffffffffffffffffffffffffffffff1673ffffffffffffffffffffffffffffffffffffffff16815260200191505060405180910390f35b6108a36004803603602081101561087757600080fd5b81019080803573ffffffffffffffffffffffffffffffffffffffff16906020019092919050505061165f565b6040518082815260200191505060405180910390f35b6108c16116af565b604051808273ffffffffffffffffffffffffffffffffffffffff1673ffffffffffffffffffffffffffffffffffffffff16815260200191505060405180910390f35b6109516004803603604081101561091957600080fd5b81019080803573ffffffffffffffffffffffffffffffffffffffff1690602001909291908035151590602001909291905050506116d8565b005b610a566004803603608081101561096957600080fd5b81019080803573ffffffffffffffffffffffffffffffffffffffff169060200190929190803573ffffffffffffffffffffffffffffffffffffffff16906020019092919080359060200190929190803590602001906401000000008111156109d057600080fd5b8201836020820111156109e257600080fd5b80359060200191846001830284011164010000000083111715610a0457600080fd5b91908080601f016020809104026020016040519081016040528093929190818152602001838380828437600081840152601f19601f820116905080830192505050505050509192919290505050611812565b005b610a60611838565b6040518080602001828103825283818151815260200191508051906020019080838360005b83811015610aa0578082015181840152602081019050610a85565b50505050905090810190601f168015610acd5780820380516001836020036101000a031916815260200191505b509250505060405180910390f35b610b0760048036036020811015610af157600080fd5b81019080803590602001909291905050506118da565b6040518080602001828103825283818151815260200191508051906020019080838360005b83811015610b47578082015181840152602081019050610b2c565b50505050905090810190601f168015610b745780820380516001836020036101000a031916815260200191505b509250505060405180910390f35b610d0b6004803603610180811015610b9957600080fd5b81019080803573ffffffffffffffffffffffffffffffffffffffff1690602001909291908035906020019092919080604001906002806020026040519081016040528092919082600260200280828437600081840152601f19601f82011690508083019250505050505091929192908060800190600280602002604051908101604052809291906000905b82821015610c78578382604002016002806020026040519081016040528092919082600260200280828437600081840152601f19601f82011690508083019250505050505081526020019060010190610c24565b50505050919291929080604001906002806020026040519081016040528092919082600260200280828437600081840152601f19601f820116905080830192505050505050919291929080604001906002806020026040519081016040528092919082600260200280828437600081840152601f19601f82011690508083019250505050505091929192905050506119a1565b604051808215151515815260200191505060405180910390f35b610e0860048036036060811015610d3b57600080fd5b81019080803573ffffffffffffffffffffffffffffffffffffffff1690602001909291908035906020019092919080359060200190640100000000811115610d8257600080fd5b820183602082011115610d9457600080fd5b80359060200191846001830284011164010000000083111715610db657600080fd5b91908080601f016020809104026020016040519081016040528093929190818152602001838380828437600081840152601f19601f820116905080830192505050505050509192919290505050611db9565b604051808215151515815260200191505060405180910390f35b610e7860048036036060811015610e3857600080fd5b8101908080359060200190929190803573ffffffffffffffffffffffffffffffffffffffff16906020019092919080359060200190929190505050611e9b565b005b610edc60048036036040811015610e9057600080fd5b81019080803573ffffffffffffffffffffffffffffffffffffffff169060200190929190803573ffffffffffffffffffffffffffffffffffffffff169060200190929190505050611f7b565b604051808215151515815260200191505060405180910390f35b610f3860048036036020811015610f0c57600080fd5b81019080803573ffffffffffffffffffffffffffffffffffffffff16906020019092919050505061200f565b005b600060016000837bffffffffffffffffffffffffffffffffffffffffffffffffffffffff19167bffffffffffffffffffffffffffffffffffffffffffffffffffffffff1916815260200190815260200160002060009054906101000a900460ff169050919050565b60006003600083815260200190815260200160002060009054906101000a900473ffffffffffffffffffffffffffffffffffffffff169050919050565b6002600082815260200190815260200160002060009054906101000a900473ffffffffffffffffffffffffffffffffffffffff1673ffffffffffffffffffffffffffffffffffffffff168273ffffffffffffffffffffffffffffffffffffffff161415611097576040517f08c379a00000000000000000000000000000000000000000000000000000000081526004018080602001828103825260228152602001806134a36022913960400191505060405180910390fd5b6002600082815260200190815260200160002060009054906101000a900473ffffffffffffffffffffffffffffffffffffffff1673ffffffffffffffffffffffffffffffffffffffff163373ffffffffffffffffffffffffffffffffffffffff161480611144575061113c6002600083815260200190815260200160002060009054906101000a900473ffffffffffffffffffffffffffffffffffffffff1633611f7b565b151560011515145b6111b6576040517f08c379a00000000000000000000000000000000000000000000000000000000081526004018080602001828103825260168152602001807f43616c6c6572206973206e6f7420617070726f7665640000000000000000000081525060200191505060405180910390fd5b816003600083815260200190815260200160002060006101000a81548173ffffffffffffffffffffffffffffffffffffffff021916908373ffffffffffffffffffffffffffffffffffffffff160217905550808273ffffffffffffffffffffffffffffffffffffffff166002600084815260200190815260200160002060009054906101000a900473ffffffffffffffffffffffffffffffffffffffff1673ffffffffffffffffffffffffffffffffffffffff167f8c5be1e5ebec7d5bd14f71427d1e84f3dd0314c0f7b2291e5b200ac8c7c3b92560405160405180910390a45050565b606060118054600181600116156101000203166002900480601f0160208091040260200160405190810160405280929190818152602001828054600181600116156101000203166002900480156113325780601f1061130757610100808354040283529160200191611332565b820191906000526020600020905b81548152906001019060200180831161131557829003601f168201915b5050505050905090565b3373ffffffffffffffffffffffffffffffffffffffff166000809054906101000a900473ffffffffffffffffffffffffffffffffffffffff1673ffffffffffffffffffffffffffffffffffffffff16146113fe576040517f08c379a00000000000000000000000000000000000000000000000000000000081526004018080602001828103825260188152602001807f53656e646572206d75737420626520746865206f776e6572000000000000000081525060200191505060405180910390fd5b80600060146101000a81548160ff02191690831515021790555050565b606060108054600181600116156101000203166002900480601f0160208091040260200160405190810160405280929190818152602001828054600181600116156101000203166002900480156114b35780601f10611488576101008083540402835291602001916114b3565b820191906000526020600020905b81548152906001019060200180831161149657829003601f168201915b5050505050905090565b6000600880549050905090565b6114d43382612177565b6114dd57600080fd5b6114e883838361220c565b505050565b61152c828260006040519080825280601f01601f1916602001820160405280156115265781602001600182028038833980820191505090505b506115c9565b5050565b601560009054906101000a900473ffffffffffffffffffffffffffffffffffffffff1681565b60006115618361165f565b821061156c57600080fd5b600660008473ffffffffffffffffffffffffffffffffffffffff1673ffffffffffffffffffffffffffffffffffffffff16815260200190815260200160002082815481106115b657fe5b9060005260206000200154905092915050565b505050565b6115e983838360405180602001604052806000815250611812565b505050565b60006115f86114bd565b821061160357600080fd5b6008828154811061161057fe5b90600052602060002001549050919050565b60006002600083815260200190815260200160002060009054906101000a900473ffffffffffffffffffffffffffffffffffffffff169050919050565b60006116a8600460008473ffffffffffffffffffffffffffffffffffffffff1673ffffffffffffffffffffffffffffffffffffffff168152602001908152602001600020612230565b9050919050565b60008060009054906101000a900473ffffffffffffffffffffffffffffffffffffffff16905090565b3373ffffffffffffffffffffffffffffffffffffffff168273ffffffffffffffffffffffffffffffffffffffff16141561171157600080fd5b80600560003373ffffffffffffffffffffffffffffffffffffffff1673ffffffffffffffffffffffffffffffffffffffff16815260200190815260200160002060008473ffffffffffffffffffffffffffffffffffffffff1673ffffffffffffffffffffffffffffffffffffffff16815260200190815260200160002060006101000a81548160ff0219169083151502179055508173ffffffffffffffffffffffffffffffffffffffff163373ffffffffffffffffffffffffffffffffffffffff167f17307eab39ab6107e8899845ad3d59bd9653f200f220920489ca2b5937696c3183604051808215151515815260200191505060405180910390a35050565b61181d8484846114ca565b6118298484848461223e565b61183257600080fd5b50505050565b606060128054600181600116156101000203166002900480601f0160208091040260200160405190810160405280929190818152602001828054600181600116156101000203166002900480156118d05780601f106118a5576101008083540402835291602001916118d0565b820191906000526020600020905b8154815290600101906020018083116118b357829003601f168201915b5050505050905090565b60606118e582612427565b6118ee57600080fd5b601360008381526020019081526020016000208054600181600116156101000203166002900480601f0160208091040260200160405190810160405280929190818152602001828054600181600116156101000203166002900480156119955780601f1061196a57610100808354040283529160200191611995565b820191906000526020600020905b81548152906001019060200180831161197857829003601f168201915b50505050509050919050565b6000601560009054906101000a900473ffffffffffffffffffffffffffffffffffffffff1673ffffffffffffffffffffffffffffffffffffffff1663621e9ec0868686866040518563ffffffff1660e01b81526004018085600260200280838360005b83811015611a1f578082015181840152602081019050611a04565b505050509050018460026000925b81841015611a735782846020020151600260200280838360005b83811015611a62578082015181840152602081019050611a47565b505050509050019260010192611a2d565b9250505083600260200280838360005b83811015611a9e578082015181840152602081019050611a83565b5050505090500182600260200280838360005b83811015611acc578082015181840152602081019050611ab1565b50505050905001945050505050602060405180830381600087803b158015611af357600080fd5b505af1158015611b07573d6000803e3d6000fd5b505050506040513d6020811015611b1d57600080fd5b8101908080519060200190929190505050611ba0576040517f08c379a00000000000000000000000000000000000000000000000000000000081526004018080602001828103825260158152602001807f536f6c7574696f6e206973206e6f742076616c6964000000000000000000000081525060200191505060405180910390fd5b6000858585856040516020018085600260200280838360005b83811015611bd4578082015181840152602081019050611bb9565b505050509050018460026000925b81841015611c285782846020020151600260200280838360005b83811015611c17578082015181840152602081019050611bfc565b505050509050019260010192611be2565b9250505083600260200280838360005b83811015611c53578082015181840152602081019050611c38565b5050505090500182600260200280838360005b83811015611c81578082015181840152602081019050611c66565b50505050905001945050505050604051602081830303815290604052805190602001209050600073ffffffffffffffffffffffffffffffffffffffff166014600083815260200190815260200160002060010160009054906101000a900473ffffffffffffffffffffffffffffffffffffffff1673ffffffffffffffffffffffffffffffffffffffff1614611d61576040517f08c379a00000000000000000000000000000000000000000000000000000000081526004018080602001828103825260218152602001806134826021913960400191505060405180910390fd5b611d6c818989611e9b565b611dac88886040518060400160405280600381526020017f5552490000000000000000000000000000000000000000000000000000000000815250611db9565b9150509695505050505050565b60003373ffffffffffffffffffffffffffffffffffffffff166000809054906101000a900473ffffffffffffffffffffffffffffffffffffffff1673ffffffffffffffffffffffffffffffffffffffff1614611e7d576040517f08c379a00000000000000000000000000000000000000000000000000000000081526004018080602001828103825260188152602001807f53656e646572206d75737420626520746865206f776e6572000000000000000081525060200191505060405180910390fd5b611e878484612499565b611e90836124ba565b600190509392505050565b806014600085815260200190815260200160002060000181905550816014600085815260200190815260200160002060010160006101000a81548173ffffffffffffffffffffffffffffffffffffffff021916908373ffffffffffffffffffffffffffffffffffffffff1602179055507f078793128cefb19aac38a33f9e5df39f67716907f6d747e8065545699e0b2b8d8183604051808381526020018273ffffffffffffffffffffffffffffffffffffffff1673ffffffffffffffffffffffffffffffffffffffff1681526020019250505060405180910390a1505050565b6000600560008473ffffffffffffffffffffffffffffffffffffffff1673ffffffffffffffffffffffffffffffffffffffff16815260200190815260200160002060008373ffffffffffffffffffffffffffffffffffffffff1673ffffffffffffffffffffffffffffffffffffffff16815260200190815260200160002060009054906101000a900460ff16905092915050565b3373ffffffffffffffffffffffffffffffffffffffff166000809054906101000a900473ffffffffffffffffffffffffffffffffffffffff1673ffffffffffffffffffffffffffffffffffffffff16146120d1576040517f08c379a00000000000000000000000000000000000000000000000000000000081526004018080602001828103825260188152602001807f53656e646572206d75737420626520746865206f776e6572000000000000000081525060200191505060405180910390fd5b806000806101000a81548173ffffffffffffffffffffffffffffffffffffffff021916908373ffffffffffffffffffffffffffffffffffffffff1602179055507fac9a252a3ed2d3fcc198677953ffe98ac492e191a4605978c655f8ce4ae8067681604051808273ffffffffffffffffffffffffffffffffffffffff1673ffffffffffffffffffffffffffffffffffffffff16815260200191505060405180910390a150565b60008061218383611622565b90508073ffffffffffffffffffffffffffffffffffffffff168473ffffffffffffffffffffffffffffffffffffffff1614806121f257508373ffffffffffffffffffffffffffffffffffffffff166121da84610fa2565b73ffffffffffffffffffffffffffffffffffffffff16145b8061220357506122028185611f7b565b5b91505092915050565b61221783838361260b565b6122218382612845565b61222b82826129e3565b505050565b600081600001549050919050565b600061225f8473ffffffffffffffffffffffffffffffffffffffff16612aaa565b61226c576001905061241f565b60008473ffffffffffffffffffffffffffffffffffffffff1663150b7a02338887876040518563ffffffff1660e01b8152600401808573ffffffffffffffffffffffffffffffffffffffff1673ffffffffffffffffffffffffffffffffffffffff1681526020018473ffffffffffffffffffffffffffffffffffffffff1673ffffffffffffffffffffffffffffffffffffffff16815260200183815260200180602001828103825283818151815260200191508051906020019080838360005b8381101561234757808201518184015260208101905061232c565b50505050905090810190601f1680156123745780820380516001836020036101000a031916815260200191505b5095505050505050602060405180830381600087803b15801561239657600080fd5b505af11580156123aa573d6000803e3d6000fd5b505050506040513d60208110156123c057600080fd5b8101908080519060200190929190505050905063150b7a0260e01b7bffffffffffffffffffffffffffffffffffffffffffffffffffffffff1916817bffffffffffffffffffffffffffffffffffffffffffffffffffffffff1916149150505b949350505050565b6000806002600084815260200190815260200160002060009054906101000a900473ffffffffffffffffffffffffffffffffffffffff169050600073ffffffffffffffffffffffffffffffffffffffff168173ffffffffffffffffffffffffffffffffffffffff161415915050919050565b6124a38282612af5565b6124ad82826129e3565b6124b681612d0d565b5050565b6124c381612427565b612535576040517f08c379a00000000000000000000000000000000000000000000000000000000081526004018080602001828103825260148152602001807f546f6b656e20646f6573206e6f7420657869737400000000000000000000000081525060200191505060405180910390fd5b6125e160128054600181600116156101000203166002900480601f0160208091040260200160405190810160405280929190818152602001828054600181600116156101000203166002900480156125ce5780601f106125a3576101008083540402835291602001916125ce565b820191906000526020600020905b8154815290600101906020018083116125b157829003601f168201915b50505050506125dc83612d59565b612e86565b60136000838152602001908152602001600020908051906020019061260792919061338d565b5050565b8273ffffffffffffffffffffffffffffffffffffffff166002600083815260200190815260200160002060009054906101000a900473ffffffffffffffffffffffffffffffffffffffff1673ffffffffffffffffffffffffffffffffffffffff16146126c2576040517f08c379a000000000000000000000000000000000000000000000000000000000815260040180806020018281038252602381526020018061345f6023913960400191505060405180910390fd5b600073ffffffffffffffffffffffffffffffffffffffff168273ffffffffffffffffffffffffffffffffffffffff1614156126fc57600080fd5b61270581612eca565b61274c600460008473ffffffffffffffffffffffffffffffffffffffff1673ffffffffffffffffffffffffffffffffffffffff168152602001908152602001600020612f88565b612793600460008573ffffffffffffffffffffffffffffffffffffffff1673ffffffffffffffffffffffffffffffffffffffff168152602001908152602001600020612f9e565b816002600083815260200190815260200160002060006101000a81548173ffffffffffffffffffffffffffffffffffffffff021916908373ffffffffffffffffffffffffffffffffffffffff160217905550808273ffffffffffffffffffffffffffffffffffffffff168473ffffffffffffffffffffffffffffffffffffffff167fddf252ad1be2c89b69c2b068fc378daa952ba7f163c4a11628f55a4df523b3ef60405160405180910390a4505050565b600061289d6001600660008673ffffffffffffffffffffffffffffffffffffffff1673ffffffffffffffffffffffffffffffffffffffff16815260200190815260200160002080549050612fc190919063ffffffff16565b905060006007600084815260200190815260200160002054905081811461298a576000600660008673ffffffffffffffffffffffffffffffffffffffff1673ffffffffffffffffffffffffffffffffffffffff168152602001908152602001600020838154811061290a57fe5b9060005260206000200154905080600660008773ffffffffffffffffffffffffffffffffffffffff1673ffffffffffffffffffffffffffffffffffffffff168152602001908152602001600020838154811061296257fe5b9060005260206000200181905550816007600083815260200190815260200160002081905550505b600660008573ffffffffffffffffffffffffffffffffffffffff1673ffffffffffffffffffffffffffffffffffffffff1681526020019081526020016000208054809190600190036129dc919061340d565b5050505050565b600660008373ffffffffffffffffffffffffffffffffffffffff1673ffffffffffffffffffffffffffffffffffffffff168152602001908152602001600020805490506007600083815260200190815260200160002081905550600660008373ffffffffffffffffffffffffffffffffffffffff1673ffffffffffffffffffffffffffffffffffffffff1681526020019081526020016000208190806001815401808255809150509060018203906000526020600020016000909192909190915055505050565b60008060007fc5d2460186f7233c927e7db2dcc703c0e500b653ca82273b7bfad8045d85a47060001b9050833f9150808214158015612aec57506000801b8214155b92505050919050565b612afe81612427565b15612b71576040517f08c379a00000000000000000000000000000000000000000000000000000000081526004018080602001828103825260178152602001807f546f6b656e20494420616c72656164792065786973747300000000000000000081525060200191505060405180910390fd5b600073ffffffffffffffffffffffffffffffffffffffff168273ffffffffffffffffffffffffffffffffffffffff161415612c14576040517f08c379a00000000000000000000000000000000000000000000000000000000081526004018080602001828103825260118152602001807f61646472657373206e6f742076616c696400000000000000000000000000000081525060200191505060405180910390fd5b816002600083815260200190815260200160002060006101000a81548173ffffffffffffffffffffffffffffffffffffffff021916908373ffffffffffffffffffffffffffffffffffffffff160217905550612cad600460008473ffffffffffffffffffffffffffffffffffffffff1673ffffffffffffffffffffffffffffffffffffffff168152602001908152602001600020612f88565b808273ffffffffffffffffffffffffffffffffffffffff16600073ffffffffffffffffffffffffffffffffffffffff167fddf252ad1be2c89b69c2b068fc378daa952ba7f163c4a11628f55a4df523b3ef60405160405180910390a45050565b6008805490506009600083815260200190815260200160002081905550600881908060018154018082558091505090600182039060005260206000200160009091929091909150555050565b60606000821415612da1576040518060400160405280600181526020017f30000000000000000000000000000000000000000000000000000000000000008152509050612e81565b600082905060005b60008214612dcb578080600101915050600a8281612dc357fe5b049150612da9565b6060816040519080825280601f01601f191660200182016040528015612e005781602001600182028038833980820191505090505b50905060006001830390505b60008614612e7957600a8681612e1e57fe5b0660300160f81b82828060019003935081518110612e3857fe5b60200101907effffffffffffffffffffffffffffffffffffffffffffffffffffffffffffff1916908160001a905350600a8681612e7157fe5b049550612e0c565b819450505050505b919050565b6060612ec2838360405180602001604052806000815250604051806020016040528060008152506040518060200160405280600081525061300b565b905092915050565b600073ffffffffffffffffffffffffffffffffffffffff166003600083815260200190815260200160002060009054906101000a900473ffffffffffffffffffffffffffffffffffffffff1673ffffffffffffffffffffffffffffffffffffffff1614612f855760006003600083815260200190815260200160002060006101000a81548173ffffffffffffffffffffffffffffffffffffffff021916908373ffffffffffffffffffffffffffffffffffffffff1602179055505b50565b6001816000016000828254019250508190555050565b612fb660018260000154612fc190919063ffffffff16565b816000018190555050565b600061300383836040518060400160405280601e81526020017f536166654d6174683a207375627472616374696f6e206f766572666c6f7700008152506132cd565b905092915050565b6060808690506060869050606086905060608690506060869050606081518351855187518951010101016040519080825280601f01601f1916602001820160405280156130675781602001600182028038833980820191505090505b509050606081905060008090506000809050600090505b88518110156130ec5788818151811061309357fe5b602001015160f81c60f81b8383806001019450815181106130b057fe5b60200101907effffffffffffffffffffffffffffffffffffffffffffffffffffffffffffff1916908160001a905350808060010191505061307e565b600090505b875181101561315f5787818151811061310657fe5b602001015160f81c60f81b83838060010194508151811061312357fe5b60200101907effffffffffffffffffffffffffffffffffffffffffffffffffffffffffffff1916908160001a90535080806001019150506130f1565b600090505b86518110156131d25786818151811061317957fe5b602001015160f81c60f81b83838060010194508151811061319657fe5b60200101907effffffffffffffffffffffffffffffffffffffffffffffffffffffffffffff1916908160001a9053508080600101915050613164565b600090505b8551811015613245578581815181106131ec57fe5b602001015160f81c60f81b83838060010194508151811061320957fe5b60200101907effffffffffffffffffffffffffffffffffffffffffffffffffffffffffffff1916908160001a90535080806001019150506131d7565b600090505b84518110156132b85784818151811061325f57fe5b602001015160f81c60f81b83838060010194508151811061327c57fe5b60200101907effffffffffffffffffffffffffffffffffffffffffffffffffffffffffffff1916908160001a905350808060010191505061324a565b82995050505050505050505095945050505050565b600083831115829061337a576040517f08c379a00000000000000000000000000000000000000000000000000000000081526004018080602001828103825283818151815260200191508051906020019080838360005b8381101561333f578082015181840152602081019050613324565b50505050905090810190601f16801561336c5780820380516001836020036101000a031916815260200191505b509250505060405180910390fd5b5060008385039050809150509392505050565b828054600181600116156101000203166002900490600052602060002090601f016020900481019282601f106133ce57805160ff19168380011785556133fc565b828001600101855582156133fc579182015b828111156133fb5782518255916020019190600101906133e0565b5b5090506134099190613439565b5090565b815481835581811115613434578183600052602060002091820191016134339190613439565b5b505050565b61345b91905b8082111561345757600081600090555060010161343f565b5090565b9056fe46726f6d2073656e64657220646f6573206e6f74206f776e207468697320746f6b656e496e76616c6964212020536f6c7574696f6e20616c726561647920657869737473546f6b656e206164647265737365732063616e6e6f74206265207468652073616d65a265627a7a72315820bb53d41763c37ba6e9af094078984ed59b8ac1b02d4849cb377004804a33dfdb64736f6c6343000510003268747470733a2f2f73332d75732d776573742d322e616d617a6f6e6177732e636f6d2f756461636974792d626c6f636b636861696e2f63617073746f6e652f",
  "source": "pragma solidity >=0.4.21 <0.6.0;\r\n\r\n// TODO define a contract call to the zokrates generated solidity contract <Verifier> or <renamedVerifier>\r\nimport \"./SquareVerifier.sol\";\r\n\r\n// TODO define another contract named SolnSquareVerifier that inherits from your ERC721Mintable class\r\nimport \"./ERC721Mintable.sol\";\r\n\r\ncontract SolnSquareVerifier is GliceToken {\r\n\r\n    // TODO define a solutions struct that can hold an index & an address\r\n    struct Solution {\r\n        uint256 index;\r\n        address addr;\r\n    }\r\n\r\n    // TODO define an array of the above struct\r\n    //Solution[] public solutions;\r\n\r\n    // TODO define a mapping to store unique solutions submitted\r\n    mapping(bytes32 => Solution) private solutions;\r\n\r\n    // TODO Create an event to emit when a solution is added\r\n    event SolutionAdded(uint256 index, address addr);\r\n\r\n    // TODO Create a function to add the solutions to the array and emit the event\r\n    function addSolution(bytes32 key, address addr, uint256 index)\r\n        public\r\n    {\r\n        solutions[key].index = index;\r\n        solutions[key].addr = addr;\r\n\r\n        emit SolutionAdded(index, addr);\r\n    }\r\n\r\n\r\n    // TODO Create a function to mint new NFT only after the solution has been verified\r\n    //  - make sure the solution is unique (has not been used before)\r\n    //  - make sure you handle metadata as well as tokenSupply\r\n    SquareVerifier public SVContract;\r\n    constructor(address addr) public {\r\n        SVContract = SquareVerifier(addr);\r\n    }\r\n\r\n    function mintToken(address addr, uint256 tokenId,\r\n            uint[2] memory a,\r\n            uint[2][2] memory b,\r\n            uint[2] memory c,\r\n            uint[2] memory input\r\n        )\r\n        public\r\n        returns(bool)\r\n    {\r\n\r\n        require(SVContract.verifyTx(a, b, c, input), \"Solution is not valid\");\r\n\r\n        bytes32 solutionHash = keccak256(abi.encodePacked(a, b, c, input));\r\n\r\n        require(solutions[solutionHash].addr == address(0x0), \"Invalid!  Solution already exists\");\r\n\r\n        addSolution(solutionHash, addr, tokenId);\r\n\r\n        return mint(addr, tokenId, \"URI\");\r\n    }\r\n\r\n}\r\n",
  "sourcePath": "C:\\Users\\cathe\\Downloads\\Web Dev\\housing\\Blockchain-Capstone\\eth-contracts\\contracts\\SolnSquareVerifier.sol",
  "compiler": {
    "name": "solc",
    "version": "0.5.16+commit.9c3226ce.Emscripten.clang"
  },
  "schemaVersion": "3.0.23",
  "updatedAt": "2020-04-28T05:04:04.310Z",
  "devdoc": {
    "methods": {
      "isApprovedForAll(address,address)": {
        "details": "Tells whether an operator is approved by a given owner",
        "params": {
          "operator": "operator address which you want to query the approval of",
          "owner": "owner address which you want to query the approval of"
        },
        "return": "bool whether the given operator is approved by the given owner"
      },
      "setApprovalForAll(address,bool)": {
        "details": "Sets or unsets the approval of a given operator An operator is allowed to transfer all tokens of the sender on their behalf",
        "params": {
          "approved": "representing the status of the approval to be set",
          "to": "operator address to set the approval"
        }
      },
      "supportsInterface(bytes4)": {
        "details": "implement supportsInterface(bytes4) using a lookup table"
      },
      "tokenByIndex(uint256)": {
        "details": "Gets the token ID at a given index of all the tokens in this contract Reverts if the index is greater or equal to the total number of tokens",
        "params": {
          "index": "uint256 representing the index to be accessed of the tokens list"
        },
        "return": "uint256 token ID at the given index of the tokens list"
      },
      "tokenOfOwnerByIndex(address,uint256)": {
        "details": "Gets the token ID at a given index of the tokens list of the requested owner",
        "params": {
          "index": "uint256 representing the index to be accessed of the requested tokens list",
          "owner": "address owning the tokens list to be accessed"
        },
        "return": "uint256 token ID at the given index of the tokens list owned by the requested address"
      },
      "totalSupply()": {
        "details": "Gets the total amount of tokens stored by the contract",
        "return": "uint256 representing the total amount of tokens"
      }
    }
  },
  "userdoc": {
    "methods": {}
  }
}